:020000040800F2
:10000000B0070020AD010008ED210008E52100083F
:10001000E921000849090008D12200080000000079
:10002000000000000000000000000000F5210008B2
:100030004D09000800000000F1210008F921000826
:10004000C7010008C7010008C7010008C701000870
:10005000C7010008C7010008C7010008C701000860
:10006000C7010008C7010008C7010008C701000850
:10007000C7010008C7010008C7010008C701000840
:10008000C7010008C7010008C7010008C701000830
:10009000C7010008C7010008C7010008C701000820
:1000A000C7010008C7010008C7010008C701000810
:1000B000C7010008C701000800000000C7010008D0
:1000C000C70100080000000000000000C701000890
:1000D00000000000C5220008C70100080000000061
:1000E000C7010008C7010008C701000800F002F8B6
:1000F00000F04CF80AA090E8000C82448344AAF176
:100100000107DA4501D100F041F8AFF2090EBAE873
:100110000F0013F0010F18BFFB1A43F0010318473B
:10012000042E0000242E0000103A24BF78C878C1A5
:10013000FAD8520724BF30C830C144BF04680C60ED
:10014000704700000023002400250026103A28BF35
:1001500078C1FBD8520728BF30C148BF0B60704739
:10016000642900F0E180002070471FB59DE803007E
:1001700000F072F900F038FB04000020002102F0CA
:1001800099FE401C60601FBD10B510BD00F007FB5C
:100190001146FFF7EAFF02F00BFB00F037FB03B458
:1001A000FFF7F2FF03BC00F067FB0000094880473F
:1001B00009480047FEE7FEE7FEE7FEE7FEE7FEE749
:1001C000FEE7FEE7FEE7FEE704480549054A064B61
:1001D00070470000FD210008ED000008B00100207C
:1001E000B0070020B0030020B003002070B5064621
:1001F00000F012F9056806F10B0020F00704B44284
:100200009CBF002070BD2B466A68BAB11068A0423E
:1002100010D304F1080188423CBF5068586007D3EE
:100220005168101941601168091B01605860146021
:10023000101D70BD13465268002AE7D1214628469A
:1002400000F0F6F80028DED170BD70B50446051F39
:1002500000F0E2F80068002C14BF446870BD002C68
:1002600018BFAC423CBF20466468F8D301680A1846
:10027000AA4218BF456003D12A68054611440160AF
:1002800028684119A1421CBF6C6070BD616869603B
:1002900021680844286070BD0FB41CB5074B06AA3E
:1002A0007B4469460090059800F06BF90020694690
:1002B00000F07AF91CBC5DF814FB00000503000097
:1002C0002DE9F0410E460446002020622046E168F8
:1002D000884730B3252805D0D4E901219047206A0A
:1002E000401CF2E7E168204600278847050018D047
:1002F000A5F14100192802D820354FF40067324695
:10030000294620462760FFF72BFF40B1012804D083
:10031000F61D26F007060836D8E7361DD6E728462C
:10032000DAE7206ABDE8F0812DE9F04106460024B5
:1003300010687529314616A510D0AFF3008000284B
:1003400002DA404213A507E031688A0701D512A5F9
:1003500002E0490704D511A5012401E0AFF30080B4
:1003600000210A2206F1240709E0B0FBF2FCB0FBF1
:10037000F2F302FB1C00303078541846491C002868
:10038000F3D123462A463046BDE8F04100F09AB842
:10039000000000002D0000002B00000020000000E5
:1003A00070B5064600F03CF80468054630460A225F
:1003B000002100F0FEF82C6070BD0000014A00F042
:1003C00031B900000000002040EA0103024630B5C8
:1003D0009B0710D14FF0013400E008C208C91D1B73
:1003E0009D4315EAC41FF8D013F0FF0102F8011B6A
:1003F0000DD01B0AF8E711F8013B002B02F8013B76
:1004000005D011F8013B002B02F8013BF3D130BDC0
:100410007047704770470000004870472000002078
:1004200000487047180000207047704770477047B9
:1004300038B504460A4600206946AFF3008000281C
:1004400008BF38BD02460099204600F019F9012086
:1004500038BD012000F07DB9F8B5AFF30080054646
:1004600000200C46102000BF0646A819A0420DD956
:10047000324669460020AFF30080070008BF00F055
:1004800068F90098A04218BF0546C419FFF7C4FFD9
:1004900005600746F01D20F007004619284600F0C9
:1004A0000AF8B44208BFF8BDA21B31463868BDE85F
:1004B000F84000F0E5B800210160C0E90110704784
:1004C000102070472DE9F0470D46994692460446A4
:1004D00000F124080168880604D5E06921F01001C4
:1004E000216000E00120A84201DD471B00E0002759
:1004F000A1697A1902EB0900081AA0612078C006E8
:1005000002D42046AFF30080002608E0D4E90121A0
:100510001AF806009047206A401C761C20624E455F
:10052000F4DB2078C0060AD52046AFF3008006E051
:10053000D4E9012130209047206A401C2062381EF7
:10054000A7F10107F4DC07E0D4E9012118F8050060
:100550009047206A401C2062281EA5F10105F3DCAB
:100560002046AFF300802078000602D50220BDE8C7
:10057000F0870120FBE7000001694A1C026108784E
:10058000704700B58FB0CDE90131002105910549D3
:100590007944CDE9031011466846FFF791FE0FB08C
:1005A00000BD0000E5FFFFFF0A6802F8010B0A60CA
:1005B00070472DE9F04791460F46804604460026D5
:1005C00014F8015B2DB100F053F80068405DC007DE
:1005D000F6D12B2D02D02D2D18D0641E4A46394657
:1005E000204600F067F827B13968A14201D1C7F869
:1005F00000804FF0020471050BD54042002803DD56
:10060000FFF70EFF0460A007BDE8F08746F48066A0
:10061000E4E70028F8DAFFF703FF04606FF000401A
:10062000F2E700002DE9F04115460E46040002D124
:100630002C6804B90BA4204600F0A2F804442078EA
:1006400070B127463146384600F08AF804442078D5
:1006500010B1002004F8010B38462C60BDE8F08191
:100660000027F9E70000000000487047180000204C
:1006700010B500F0B9F8001D10BD00BF392800000A
:10068000034640688C46002818BF88423CBF03469A
:100690004068F8D318681844884207D00CF103006A
:1006A00020F00700001D411A521A0146081D0A6079
:1006B000FFF7CBBD2DE9F05F824615468B4600273C
:1006C0000AF10104B9460078302801D09DB113E049
:1006D00014F8010B0127782803D0582801D045B120
:1006E0000AE00DB1102D07D1002714F8010B1025D9
:1006F00002E0082500E00A250026B0460EE005FBD2
:10070000080005FB06F101271FFA80F801EB1046EF
:10071000B6F5803F00D3B94614F8010B294600F026
:1007200067F80028EBDABBF1000F05D00FB1641EAB
:1007300000E05446CBF80040B9F1000F06D0FFF7B7
:100740006FFE02210160C81EBDE8F09F48EA064026
:10075000FAE710B500F068F8BDE8104000F05FB8A7
:1007600030B503461D781DB10A4603E0AC4201D105
:10077000181A30BD12F8014B002CF7D15B1CF1E7C1
:1007800030B503461D783DB10A4612F8014B1CB145
:10079000AC42FAD15B1CF5E7181A30BD70477546BC
:1007A000FFF762FFAE4605006946534620F007009A
:1007B000854618B020B5FFF707FDBDE820404FF093
:1007C00000064FF000074FF000084FF0000BAC465A
:1007D000ACE8C009ACE8C009ACE8C009ACE8C009A5
:1007E00021F007018D46704700487047380000200F
:1007F0003A2800D2303820F02002412A01D3A2F159
:100800003700884201D34FF0FF30704710B50446DF
:10081000AFF300802046BDE81040FFF7C0BC0028C1
:1008200001D000F029B8704710B5012805D000218B
:1008300003A000F027F8012010BD09A1F8E700008F
:1008400053494752544D454D3A204F7574206F66B9
:100850002068656170206D656D6F72790000000021
:100860003A2048656170206D656D6F727920636F05
:10087000727275707465640001491820ABBEFEE7A2
:100880002600020070B505460C460A2000E06D1CEB
:1008900000F052F835B128780028F8D102E0641C45
:1008A00000F04AF814B120780028F8D1BDE8704073
:1008B0000A2000F041B800004FF0013C50F8042B32
:1008C00051F8043B9A4221D1A2EB0C03934313EA63
:1008D000CC1317D150F8042B51F8043B9A4215D190
:1008E000A2EB0C03934313EACC130BD150F8042B67
:1008F00051F8043B9A4209D1A2EB0C03934313EA4B
:10090000CC13DBD04FF00000704700BFD01A01BA03
:10091000B1FA81F101F0180122FA01F0CB40DBB20B
:10092000C0B2C01AC1F120012CFA01F3D11A9143CF
:1009300011EAC311E6D1704708B569468DF8000089
:100940000320ABBE08BD0000FEE7000070470000BA
:10095000014690F82100022816D10868D1E90FC39A
:10096000026822F00E020260026822F001020260B8
:10097000012000FA03F2CCF8042081F821000020C5
:10098000002281F820207047042088630120002283
:1009900081F820207047000080B590F821100229CE
:1009A00024D10268116821F00E0111602F21136813
:1009B000C4F202018A4240F20401C4F2020123F0AF
:1009C0000103136016DD3023C4F202039A421DD0E6
:1009D0004423C4F202039A421CD05823C4F20203F7
:1009E0009A421DD14FF4803322E000BF042181637D
:1009F000012080BD0823C4F202039A420ED01C23BA
:100A0000C4F202039A420BD1102311E04FF4807319
:100A10000EE000BF4FF480530AE000BF012307E05F
:100A200001F1680C4FF08073624508BF4FF48013EA
:100A30000B60416B4FF48072028401B18847002043
:100A400080BD0000B0B5044600F020F9054640F234
:100A50000400C2F200000078611C18BF044400BF0B
:100A600000F014F9401BA042FAD3B0BD2DE9F04FBD
:100A700082B00E68002E00F0F98040F20C4C41F27A
:100A800000024FF6FF7EC4F2010CC4F201020327FC
:100A900000240123C1F2100E4FF0000B4FF00009AB
:100AA000904208BF022700974CE000BF40F600428A
:100AB000C4F20102009F904208BF012704F00C031A
:100AC0000F229A402AEA020207FA03F34FEA9B0533
:100AD0001A4346F82520D1F804A040F20045C4F29C
:100AE00001055FEACA322A6854BF22EA080242EAD4
:100AF00008022A606A685FEA8A3354BF22EA080261
:100B000042EA08026A605FEACA23AA6854BF22EA7E
:100B1000080242EA08025FEA8A23AA60DCF80020A1
:100B20004FF0010354BF22EA080242EA0802CCF85F
:100B300000200E680BF1010B36FA0BF204F10404ED
:100B400000F0948003FA0BF816EA080FF1D04E6813
:100B5000764511DC122E55D8DFE806F0340A4448F9
:100B6000545454545454545454545454544C5000A5
:100B7000D1F80C9046E000BF4FF6FF72C1F221029F
:100B800096420FDC0022C1F2110296421AD00022D6
:100B9000C1F21202964215D00022C1F22102964201
:100BA00010D02FE00022C1F2220296420AD0002289
:100BB000C1F23102964205D00022C1F232029642C1
:100BC00020D100BF8A684AB1012A14BFC0F814803E
:100BD000C0F810804FF0080914E000BF4FF004097E
:100BE00010E000BFCA6802F108090BE04FF00009ED
:100BF00008E000BFCA6802F1040903E0CA6802F114
:100C00000C0900BF22460646BBF1080F24BF203A5C
:100C1000043637680F25954027EA050509FA02F2E0
:100C20002A433260CA79D2067FF583AF41F21803B6
:100C3000C4F202031A6842F001021A601A6802F054
:100C400001020192019A40F20042C4F20102A2F5AF
:100C50007E762BF0030256F802A040F60002C4F2A2
:100C6000010290427FF422AF002727E702B0BDE8DF
:100C7000F08F00008068084018BF01207047000016
:100C8000002A08BF090401617047000040F2AC105F
:100C9000C2F200000068704770B5B8B3044690F81F
:100CA0003D0028B9002084F83C00204600F0ECFA12
:100CB000242084F83D002068016821F001010160D2
:100CC000016841F400410160016821F400410160C4
:100CD00000F0A4FC48F28041C0F21E0140F600136F
:100CE000D4F804E088424FF00001C0F23D0348F21E
:100CF000A16C4FF0000238BF01219842C0F2010CF4
:100D000038BF0122E64538BF0A460AB1012070BD4E
:100D10004DF68361C4F21B31A0FB01122168950CD2
:100D20004B684FF4967623F03F0343EA92437543B2
:100D300044F6D3564B60C1F262060B6AA5FB065619
:100D4000B50923F03F03E64538BF950C6A1C1A43EA
:100D50000A62CA6948F2A0664CF6FF73C0F2010647
:100D6000B64522EA03020BD801384FEA4E03B0FB26
:100D7000F3F001306FF31F30042898BF04201EE009
:100D8000A368013863B119230EFB03F3B0FBF3F042
:100D900001306FF31F3078B100F5804008E000BFEC
:100DA0000EEB4E03B0FBF3F001306FF31F3028B1B0
:100DB00000F5004003E000BF012000E001201043E7
:100DC000C8610868D4E9072320F0C0001043184325
:100DD0000860886848F2FF3204F10C0690434CCE5C
:100DE00018431043A5698860C86820F0FF003043AD
:100DF0002843C860086840F00100086000202021F6
:100E0000206484F83D10206384F83E0070BD00002B
:100E10002DE9F04381B01F46164688460446FFF789
:100E200035FF94F83D10202920D1054620688169BE
:100E3000890717D5FFF72AFF401B1928F6D900208C
:100E40002021206384F83D1084F83E00216C0226A6
:100E500041F02001216484F83C00304601B0BDE837
:100E6000F08300BF94F83C10012905D102263046DA
:100E700001B0BDE8F08300BF012184F83C10016897
:100E8000C90703D1016841F001010160016821F443
:100E900000610160212184F83D10102184F83E108A
:100EA0000021216466626785618D21850021CFF66E
:100EB000FF71E162E16A11F5803F18BF012919D184
:100EC000016841F4807101604169DDF82090C90733
:100ED00023D119F1010116D0B9F1000F46D000BF9E
:100EE000FFF7D4FE401B484542D820684169C90736
:100EF000F6D012E00829E3D0216B1229E0D0E3E715
:100F00004169C90709D14169C90706D14169C907C2
:100F100004BF41695FEAC171F2D02169B1F5804F28
:100F200002D1FE2161E000BF062101EAD811F031B3
:100F300001614169090757D4416919F1010201F4BE
:100F400080612FD0002946D1B9F1000F00F0428115
:100F5000FFF79CFE401B484500F23E812068416936
:100F6000090741D441694905F2D534E0FFF78EFE07
:100F700000202021206384F83D1084F83E00216C7D
:100F8000012641F020012164216884F83C000868B2
:100F9000C00544BF4FF400702064304601B0BDE886
:100FA000F08300BFB9B9416909071DD441694905FA
:100FB00011D44169090717D4416949050BD4416926
:100FC000090711D44169490505D4416909070BD4C2
:100FD00041694905E7D5016841F4007101606FF48A
:100FE000806141610420F8E0FF2101EA080101610C
:100FF000416989073AD4416919F1010201F480611C
:1010000012D051BBB9F1000F00F0E080FFF73EFEB7
:10101000401B484500F2DC8020684169890725D4DF
:1010200041694905F2D518E0B9B9416989071DD46C
:101030004169490511D44169890717D441694905B6
:101040000BD44169890711D44169490505D4416927
:1010500089070BD441694905E7D5016841F400715E
:1010600001606FF4806141610420B6E000260096C3
:1010700041690091816900910099218D002900F05A
:10108000958009F10108014651F8142F120635D454
:10109000B8F1000F16D0B9F1000F00F0AF8000BF1B
:1010A0000868400500F1B280FFF7F0FD401B48459D
:1010B00000F2A9802068014651F8142F1206EFD5DE
:1010C0001CE000BF0A68520500F1A0800A68120601
:1010D00014D40A68520500F199800A6812060DD4EA
:1010E0000A68520500F192800A68120606D40A685E
:1010F000520500F18B800A681206E3D5636A19462F
:1011000011F8012B02616162618D01396185278DC2
:101110000146A7F1010CA4F828C051F8142F52077A
:101120000DD55FEA0C420AD05A78A7F1020C026191
:101130009A1C6262628D013A6285A4F828C00A682E
:1011400052072FD4B8F1000F14D0B9F1000F7BD0A3
:101150000868400500F18080FFF798FD401B484576
:1011600077D82068014651F8142F5207F0D5B4F80B
:1011700028C017E00A6852056ED40A68520711D4D5
:101180000A68520568D40A6852070BD40A685205E7
:1011900062D40A68520705D40A6852055CD40A680A
:1011A0005207E7D55FEA0C417FF46DAF016841F467
:1011B00000710160202084F83D0084F83E6084F8CE
:1011C0003C60304601B0BDE8F08300BFFFF75EFD34
:1011D000202002E0FFF75AFD202000212022216379
:1011E00084F83D2084F83E10226C012610432064D0
:1011F00084F83C10304601B0BDE8F0830868400533
:1012000004D4FFF743FD202004E000BF6FF48060AA
:101210000860042000212022216384F83D2084F806
:101220003E10226C1043206484F83C10206C04288B
:1012300025D120680126016841F400710160304623
:1012400001B0BDE8F08300BF0868400504D4FFF793
:101250001DFD202004E000BF6FF4806008600420C2
:1012600000212022216384F83D2084F83E10226C66
:101270001043206484F83C10206C0428D9D0012647
:10128000304601B0BDE8F08310B586B0016845F284
:101290000040C4F20000814202D006B010BD00BF81
:1012A00041F21804C4F20204216800F5384041F00C
:1012B00008012160216801F0080102910299C02112
:1012C000029112210391002104910321059102A9A9
:1012D000FFF7CCFB606840F400106060606800F4C9
:1012E00000100190019806B010BD000040F204000B
:1012F00040F2AC11C2F20000C2F2000100780A68AC
:10130000104408607047000080B542F20000C4F24B
:101310000200016841F010010160032000F08EF826
:101320000F2000F005F800F027F8002080BD000035
:1013300070B540F20406C2F2000640F210013278A5
:10134000C2F200014FF47A730968B3FBF2F204466B
:10135000B1FBF2F1084600F063FB0F2C4FF00105E2
:1013600008D838B94FF0FF3021460022002500F0A0
:1013700039F87460284670BD82B041F21800C4F29A
:1013800002000168022241F001010160016801F0E0
:10139000010101910199416841F08051416040682B
:1013A00000F08050009000980420C4F20100016811
:1013B00062F31A61016002B070470000002848BF64
:1013C0007047C1B200F01F00012202FA00F04EF295
:1013D0000012CEF2000242EAD10121F003010860BE
:1013E0007047000010B54EF60C5CCEF2000CDCF835
:1013F0000030C3F3022E8EF00704042C28BF04240F
:10140000BEF103034FF0FF3E0EFA04F438BF002391
:10141000A14399400EFA03F39A43114300F00F02DF
:1014200000F160430901043A03F564436244002873
:1014300048BF02F10C03197010BD00004EF60C51AC
:10144000CEF200010A684FF6FF031A4060F30A2249
:1014500042F0806040F0FD70086070472DE9F04375
:1014600081B0002800F0858042F20008C4F2020832
:101470000446D8F800000D4600F0070088420CD260
:10148000D8F8000020F007002843C8F80000D8F87A
:10149000000000F00700A8426BD1206841F2040967
:1014A0008107C4F2020917D5410705D5D9F8001004
:1014B00041F4E061C9F80010010705D5D9F8001022
:1014C00041F46051C9F80010D9F80010A26821F069
:1014D000F0011143C9F80010C00741D1D8F800004D
:1014E00000F00700A8420CD9D8F8000020F007004F
:1014F0002843C8F80000D8F8000000F00700A84210
:1015000037D12068410707D5D9F80010E26821F4E7
:10151000E0611143C9F80010000708D5D9F80000B0
:10152000216920F4605040EAC100C9F80000D9F8F0
:10153000002002F00C00082841F20020C0F27A00DE
:1015400050D142F6FA63C2F38341C0F60003595CFE
:10155000D2033BD440F60010C0F23D00484341E0C6
:10156000606802280AD001282AD159F8041C89038E
:1015700008D4012001B0BDE8F08300BF59F8041C75
:101580008901F6D5D9F8001021F003010843C9F804
:101590000000FFF77BFB064641F28837D9F80000D0
:1015A000616800F00C00B0EB810F97D0FFF76EFB85
:1015B000801BB842F2D9032001B0BDE8F08300BF20
:1015C00059F8041C8907D4D5DCE700BFD9F80020FE
:1015D00042F6E063C2F34042C0F600039A5C48431F
:1015E000B0FBF2F0D9F8001042F6E262C1F3031149
:1015F000C0F60002515C40F2100220FA01F140F204
:101600000800C2F200000068C2F200021160FFF799
:101610008FFE002001B0BDE8F083000040F2100012
:1016200041F20401C2F20000C4F20201006809683C
:1016300042F6F262C1F30221C0F60002515CC840DA
:101640007047000040F2100041F20401C2F20000B5
:10165000C4F202010068096842F6F262C1F3C221D5
:10166000C0F60002515CC840704700002DE9F0410F
:1016700082B0002868D00446007841F20006C00716
:10168000C4F2020625D0706800F00C0004281BD0BC
:10169000706800F00C00082802D17068C00313D4F1
:1016A0006068002800F06881B0F5A02F00F07C8110
:1016B000B0F5803F00F07C81306820F480303060ED
:1016C000306820F4802076E13068800301D56068BE
:1016D000D0B32078800718D5706810F00C0F07D0B1
:1016E000706800F00C0008286ED17068C0036BD4DD
:1016F0003068800702D52069012825D130686169EA
:1017000020F0F80040EAC1003060207800071FD4C4
:101710002078400732D4E56995B1706800F00C007C
:10172000082840F08F80012D0ED07068216A00F4E7
:1017300080328A4208D1616A00F47010884203D175
:10174000002002B0BDE8F081012002B0BDE8F081C8
:10175000A069002862D00020C4F242200121C0F814
:101760008014FFF793FA0546706A800700F18C80B9
:10177000FFF78CFA401B0228F6D92AE1F06910F035
:10178000805808D1F06940F08050F061F06900F0B5
:1017900080500090009847F20007C4F200073868B4
:1017A000C00529D4386840F480703860FFF76EFABD
:1017B000054600BF3868C0051ED4FFF767FA401B16
:1017C0006428F7D905E100BF2069002840F2000035
:1017D000C4F2422000F0828001210160FFF756FA36
:1017E000054600BF306880073FF588AFFFF74EFA27
:1017F000401B0228F6D9ECE0E068002800F0808069
:10180000052800F09780012800F09880306A20F0C9
:1018100001003062306A20F0040092E00020C4F23F
:1018200042200021C0F88014FFF730FA054600BFBF
:10183000706A80077FF56CAFFFF728FA401B02281B
:10184000F6D9C6E00027C4F2422700203866FFF729
:101850001DFA022D05460BD13068800140F1BE8093
:10186000FFF714FA401B02284FF00300F4D968E791
:10187000306880017FF564AFFFF708FA401B02284B
:101880004FF00300F4D95CE740F21000C2F2000010
:10189000006844F6D351C1F26201A0FB0101480A7D
:1018A000019000BF00BF0198411E002801913FF444
:1018B0002FAF00BF0198411E002801913FF428AFCF
:1018C00000BF0198411E002801913FF421AF00BFE5
:1018D0000198411E00280191E4D119E7002101601F
:1018E000FFF7D4F9054600BF306880077FF50DAFDC
:1018F000FFF7CCF9401B02284FF00300F4D920E792
:10190000306A20F001003062306A20F0040030625A
:10191000FFF7BCF9054641F2883700BF306A8007FF
:1019200020D5FFF7B3F9401BB8424FF00300F5D9BB
:1019300007E700BF306A40F004003062306A40F0D0
:1019400001003062FFF7A2F9054641F2883700BF77
:10195000306A800706D4FFF799F9401BB842F7D9DF
:1019600037E000BFB8F1000F7FF4D5AEF06920F08A
:101970008050F061CFE600BF306820F480303060E6
:10198000306820F480203060FFF780F9054600BF02
:10199000306880037FF59DAEFFF778F9401B64281F
:1019A0004FF00300F4D9CCE6306840F4802030607A
:1019B000306840F480303060FFF768F9054600BFBA
:1019C000306880033FF585AEFFF760F9401B64285F
:1019D000F6D9032002B0BDE8F08100BF206AB0F55F
:1019E000803F05D17168A26821F400311143716014
:1019F0007168626A21F47411114308437060012018
:101A00003866FFF743F90446306880013FF598AE29
:101A1000FFF73CF9001B02284FF00300F4D990E6D1
:101A2000411E0020B0EB116F1CBF012070474EF229
:101A30001002CEF2000251604EF62351CEF20001A8
:101A4000F0230B70072190601160704710B590F87B
:101A50003C20012A4FF0020225D080F83D20026888
:101A6000D2F804E0D2F808C00C682EF070032343CB
:101A7000B2F1804F53600BD042F60043C4F2010331
:101A80009A4205D040F20043C4F200039A4204D1C6
:101A900049682CF08003194391600121002280F8ED
:101AA0003D1080F83C20104610BD0000002804BF07
:101AB0000120704710B5044690F83D0028B9002079
:101AC00084F83C00204600F051F8022084F83D00E4
:101AD000206842F6004C0268B0F1804FC4F2010C5D
:101AE00018BF604504D1A36822F070021A4305E0D4
:101AF00040F20043C4F200039842F4D0B0F1804FAA
:101B000018BF604504D1236922F440721A4305E0EE
:101B100040F20043C4F200039842F4D0A16922F0DD
:101B20008002D4F804E0E368114360450160C362B9
:101B3000C0F828E002D16169CCF830100121416180
:101B4000002084F8461084F83E1084F83F1084F892
:101B5000401084F8411084F8421084F8431084F84F
:101B6000441084F8451084F83D1010BD81B0006821
:101B700042F60041C4F20101884201D001B0704731
:101B800041F21800C4F20200016841F400610160F2
:101B9000006800F400600090009801B070470000F9
:101BA00090F83D1001291CBF01207047022180F8E8
:101BB0003D100068B0F1804F0BD042F60041C4F2F6
:101BC0000101884205D040F20041C4F20001884280
:101BD00006D1816801F00701062904BF0020704783
:101BE000016841F0010101600020704780B590F864
:101BF0003C20012A4FF0020200F0BF8080F83D2017
:101C0000D0F800C04FF67772DCF8083023EA020201
:101C1000CCF808200B683F2B1CDD5F2B20DD602BF0
:101C200050D0B3F5005F6DD0702B40F0A080D1E9AB
:101C300001E3C968DCF8082043EA0E0322F47F427E
:101C400043EA01211143CCF80810DCF8081041F0F8
:101C500077018AE01F2B29DC63B3102B2AD086E0A2
:101C6000402B63D0502B40F08280D1F804E0C9684B
:101C7000DCF82030DCF8202022F00102CCF8202013
:101C8000DCF8182022F0F00242EA011123F00A02E7
:101C900042EA0E02CCF81810CCF82020DCF808102C
:101CA00041F0570121F020015FE000BF202B01D05F
:101CB000302B5CD1DCF8081021F07001194341F0A1
:101CC000070152E0D1F804E0C968DCF8203023F0C5
:101CD0001003CCF82030DCF81830DCF8202023F496
:101CE000704322F0A00243EA013142EA0E12CCF81E
:101CF0001810CCF82020DCF8081041F0670121F022
:101D0000100132E0D1E901E3C968DCF8082043EAB8
:101D10000E0322F47F4243EA01211143CCF808105C
:101D2000DCF8081041F480411FE000BFD1F804E066
:101D3000C968DCF82030DCF8202022F00102CCF861
:101D40002020DCF8182022F0F00242EA011123F0F2
:101D50000A0242EA0E02CCF81810CCF82020DCF877
:101D6000081041F0470121F03001CCF808100121A2
:101D7000002280F83D1080F83C20104680BD000015
:101D80007047000070470000B0B582B00268054699
:101D90001068D368546900F02F01202903F0200156
:101DA00006D129B1284602B0BDE8B04000F02EBAF5
:101DB0005FEA007C1EBF04F0010E03F4907414EB84
:101DC0000E0453D1296B012905D110F0100118BF61
:101DD00013F0100136D1010622D513F080011FD077
:101DE00095F83D0021283FD1A868B0F5805F03D168
:101DF0002869002800F0F880286A411C29620078D0
:101E00005060E88C01380104E8842DD1D06820F0BE
:101E10008000D060D06840F04000D06002B0B0BD1B
:101E2000400621D513F040001ED0D068202120F0BC
:101E30004000D060284685F83D1002B0BDE8B040B3
:101E400000F0CEB900200190106801905068019018
:101E500001985069400611D4A88DE98DEB8D002BB7
:101E600018BF884240F0A68002B0B0BDC40718BFBA
:101E700013F480732CD1430730D436E0A86B01688B
:101E80004B689CB2002CEFD0A98D8C42ECD2EB8534
:101E90008369202B17D0D16821F48071D1605169FA
:101EA00021F001015161516921F04001516120216E
:101EB00085F83E1000212963D16821F01001D1601E
:101EC000FEF746FDA98DE88D081A81B2284685E007
:101ED0002B6C43F001032B64430706D5BEF1000FC2
:101EE00003D02B6C43F002032B64830706D5BEF1AD
:101EF000000F03D02B6C43F004032B64BCF1000FE4
:101F000009D541EA0E03B3FA83F35B0903D12B6CC5
:101F100043F008032B642B6C002BA5D010F020009D
:101F200018BF002903D0284600F070F92A685069CC
:101F3000296C00F0400001F0080140182CD0D06856
:101F400020F49070D060506920F001005061286B3F
:101F5000012803D1D06820F01000D060202085F83F
:101F60003E0000202863506940061DD5506920F0CE
:101F700040005061A86BB8B142F20121C0F60001E7
:101F80004163FEF709FD00283FF46EAFA86B416B7B
:101F900002B0BDE8B04008472846FFF7F3FE002036
:101FA000286402B0B0BD00BF284602B0BDE8B04012
:101FB000FFF7E8BED368401A23F49073D3605369E7
:101FC00081B223F001035361202385F83E300023C2
:101FD0002B63D368284623F01003D36002B0BDE81A
:101FE000B040FFF7CDBE00BF286A30F8021B6FF388
:101FF0005F215160286204E7002804BF0120704778
:1020000010B5044690F83D0028B9002084F83C0043
:10201000204600F061F8242084F83D002068D4E9CF
:102020000212C36823F40053C360036923F44053CE
:102030001A430261D4E904231143C268194341F2EF
:102040000C639A431143C1604169A26921F4407154
:10205000114343F60002C4F201029042416103D0F1
:10206000FFF7DCFA02E000BFFFF7ECFA6268192123
:1020700048439100B0FBF1F048F21F51C5F2EB115B
:10208000A0FB01235A094FF69C73C0F6FF7302FBB5
:102090000300322303EB0010A0FB0101F02303EA4D
:1020A0005113206803EB0212C1F343111144816004
:1020B000016921F490410161416921F02A014161E6
:1020C000C16841F40051C16000202021206484F8DF
:1020D0003D1084F83E1010BD70B586B040F6000487
:1020E000C4F20104006804F54051002688420496B9
:1020F00002D006B070BD00BF41F21800C4F2020069
:10210000016802AD41F480410160016801F4804141
:1021100001910199016841F00401016000682946BC
:1021200000F00400019001984FF40070029002202A
:102130000390032005902046FEF798FC4FF4806042
:10214000CDE90206204629460496FEF78FFC25209D
:1021500000210022FFF746F92520FFF72FF906B0EE
:1021600070BD0000034690F83E0020280AD10029E7
:102170004FF0010018BF002A00D1704793F83C00CF
:10218000012801D1022070470020186399622221A2
:102190009A85DA85186483F83E10196883F83C0044
:1021A000CA6842F48072CA604A6942F001024A6118
:1021B000CA6842F02002CA6070470000B0B540F221
:1021C0009004C2F20004254615F8040B00F0BCFD93
:1021D000284621460122BDE8B040FFF7C3BF0000FA
:1021E00070470000FEE70000FEE70000FEE7000089
:1021F0007047000070470000FFF778B87047000094
:10220000406A0021C185C184FFF7BCBD81B090F850
:102210003E10222921D183680246B3F5805F09D19F
:1022200052F8281F52F8183C002B3FD003685B6817
:102230000AE000BF52F8281F13B90369002BF5D03C
:1022400003685B6803F07F030B7011680131116054
:10225000C18D01390A04C18502D001B0704700BFA9
:102260000168CA6822F02002CA60CA6822F480723B
:10227000CA604A6922F001024A61202280F83E20A9
:10228000026B012A1AD100220263CB6823F01003EB
:10229000CB600B68DB0605D500920A68009249689E
:1022A00000910099818D01B0FFF76ABD0268526804
:1022B0006FF35F2221F8022B8162C9E701B0FFF7BB
:1022C0007DBF000040F29400C2F20000FFF75CBD49
:1022D000FEE700002DE9F04F81B040F60044C4F263
:1022E000010420464FF40061FEF7C4FC40F2780A76
:1022F000C2F2000A30B920460221FEF7BBFC0028DA
:1023000000F02481DAF80000042872D140F20C07B2
:1023100042F61E7842F6147942F60F7B91A5C2F27E
:1023200000070AF10406C0F60008C0F60009C0F66E
:10233000000B06E020464FF48061FEF79BFC00286E
:1023400054D00020052100F0D9F9284600F004FA05
:1023500020464FF40061FEF78DFCF8B9386841461D
:10236000421C30463A60FDF797FF0120002100F043
:10237000C5F9484600F0F0F90120092100F0BEF946
:10238000584600F0E9F90120092100F0B7F930467C
:1023900000F0E2F94FF4FA70FEF754FB20460221F8
:1023A000FEF768FC0028C5D138684146421E304619
:1023B0003A60FDF771FF0120002100F09FF94846C7
:1023C00000F0CAF90120092100F098F9584600F000
:1023D000C3F90120092100F091F9304600F0BCF961
:1023E0004FF4FA70FEF72EFBA4E700BF0020CAF8F6
:1023F000000020464FF40061FEF73CFCC0B900F03D
:10240000C7F80120002100F079F958A000F0A4F9E4
:10241000DAF80000012865D002286FD0032807D120
:1024200040F20C00C2F200000168002000F0F4FB52
:1024300020460221FEF71EFCC0B900F0A9F80120D9
:10244000002100F05BF94BA000F086F9DAF80000FB
:10245000012861D002286BD0032807D140F20C007C
:10246000C2F200000168012000F0D6FB20460121E5
:102470000125FEF7FFFB50B900F08AF8012000218A
:1024800000F03CF93CA000F067F9CAF80050A4F550
:10249000806420468021FEF7EDFB58B900F078F803
:1024A0000120002100F02AF935A000F055F90220A2
:1024B000CAF8000020464021FEF7DCFB10B101B055
:1024C000BDE8F08F00F064F80120002100F016F95B
:1024D0002DA000F041F90320CAF8000001B0BDE8CA
:1024E000F08F00BF40F20C00C2F200000168002033
:1024F00000F06AFADAF8000002288FD140F20C00EE
:10250000C2F200000168002000F0F0FADAF80000E2
:1025100003283FF485AF8BE740F20C00C2F20000C5
:102520000168012000F050FADAF80000022893D187
:1025300040F20C00C2F200000168012000F0D6FA5F
:10254000DAF8000003283FF489AF8FE70420CAF8C7
:10255000000000F01DF8DAF8000004283FF4D6AEC1
:1025600047E700BF53455454494E47005354415226
:1025700054000000524556004D4F44310000000009
:102580004D4F4432000000004D4F44330000000026
:102590002DE9F04184B048F68C0040F21014C0F6EA
:1025A0000C00C2F2000402904FF0640802AA204618
:1025B0004E210423CDF80080FEF72AFC42F62D16AA
:1025C0004627C0F60D1603AD20464E212A460423A9
:1025D0000396CDF80080FEF71BFC013FF4D104B058
:1025E000BDE8F08170B582B03220FEF72BFA40F2E0
:1025F000101443F63C06C2F20004C0F60C06642533
:1026000001AA20464E21042301960095FEF700FC06
:102610000520FEF717FA01AA20464E210423019651
:102620000095FEF7F5FB0120FEF70CFA01AA204603
:102630004E21042301960095FEF7EAFB0A20FEF7DF
:1026400001FA42F62C00C0F60C00019001AA2046C7
:102650004E2104230095FEF7DBFB0A20FEF7F2F97A
:1026600042F62C00C8F68C00019001AA20464E21AB
:1026700004230095FEF7CCFB0120FEF7E3F940F6BA
:102680000C00C8F68C00019001AA20464E210423BC
:102690000095FEF7BDFB0120FEF7D4F940F60C00D3
:1026A000C1F61C00019001AA20464E21042300958A
:1026B000FEF7AEFB0120FEF7C5F90120FEF7C2F9D7
:1026C00040F60C00C6F66C00019001AA20464E218F
:1026D00004230095FEF79CFB0120FEF7B3F940F6BA
:1026E0000C00CCF6CC00019001AA20464E21042318
:1026F0000095FEF78DFB02B070BD0000012805D0EB
:10270000002808BF41F0800102E000BF41F0C00195
:1027100080B582B021F00F00090100F10C020830F1
:102720008DF8050001F10C008DF8060001F108009C
:102730008DF8070040F210108DF804204FF0640C63
:10274000C2F2000001AA4E210423CDF800C0FEF71A
:102750005FFB02B080BD0000F0B583B0017821B30B
:1027600040F21014461E6427C2F2000402AD00BFFE
:1027700021F00F00090100F10D0209308DF8090068
:1027800001F10D008DF80A0001F109008DF8082013
:102790008DF80B0020464E212A4604230097FEF7B1
:1027A00037FBB17801360029E2D103B0F0BD00005B
:1027B00090B0FEF7A9FD00240120CDE90B44CDE93E
:1027C000094406900A904FF4E0104FF4803102253E
:1027D0000F9006A8CDE90714CDE90D51FEF746FF8D
:1027E00020B1EFF3108072B6FEE700BF0F20CDE9F5
:1027F00000054FF48060CDE903046846022102948D
:10280000FEF72CFE20B1EFF3108072B6FEE700BF9A
:1028100041F21800C4F20200016840F6000441F0E1
:10282000200101600168C4F2010401F02001069159
:1028300006990168002241F00401016001683E250B
:1028400001F00401069106990168002641F0080193
:10285000016000683E2100F00800069006982046BE
:10286000FEF70EFA0695022006AD012709902046D4
:102870002946CDE90776FEF7F9F8C02006A9C1C1BF
:1028800020462946FEF7F2F840F6034006A9C1C1EA
:1028900004F580602946FEF7E9F840F21010A4F52F
:1028A0003441C2F2000048F2A0624FF48043C0F20B
:1028B000010280E84600C0E90363C0E90566C0E99B
:1028C0000766FEF7E9F928B1EFF3108072B600BF92
:1028D000FEE700BF40F2641004F51051C2F20000A0
:1028E0004FF6FF730996CDE90766CDE900664722EA
:1028F00080E84600C0E90336C0E90566FFF7D6F870
:1029000020B1EFF3108072B6FEE700BF4FF48050A5
:10291000069040F26410C2F2000006A9FFF766F9C3
:1029200020B1EFF3108072B6FEE700BF40F26410F2
:10293000C2F200006946FFF789F828B1EFF3108072
:1029400072B600BFFEE700BF04F5405140F29004AC
:10295000C2F20004204640F8041F4FF4E131002287
:102960000C23C0E90112C0E90322C0E90532C261AB
:10297000FFF742FB20B1EFF3108072B6FEE700BF15
:10298000251D284621460122FFF7ECFB40F264108A
:10299000C2F20000FFF704F9FFF724FE284600F01A
:1029A00083FA05A400200021FFF7A8FE2046FFF7C8
:1029B000D3FEFFF78FFCF5E743434348202D204E1D
:1029C000686F6D20350000002DE9F04F81B00D4695
:1029D000064640F6000901200021C4F20109012445
:1029E0004FF00008FFF78AFE3DA0FFF7B5FE48460E
:1029F00020210022FEF744F9484610210022FEF76C
:102A00003FF9484608210022FEF73AF9F2B248465B
:102A10000221FEF735F9012D4FDBC82005FB00F63A
:102A200040F20C1A40F2140B40F26417012ED8BF8A
:102A30002646C2F2000AC2F2000BC2F2000709F5F4
:102A400080650024DAF8000004210130CAF8000093
:102A500048460122FEF714F93868BBF80010C0F8A8
:102A6000248000BF426A8A4208D2426A8A4205D262
:102A7000426A8A4202D2426A8A42F3D34846042119
:102A80000022FEF7FDF83868BBF80010C0F824807B
:102A9000426A8A4208D2426A8A4205D2426A8A421D
:102AA00002D2426A8A42F3D328464FF48061FEF78D
:102AB000E1F828B10134B442C4D101B0BDE8F08FCF
:102AC000FFF766FD01200021FFF718FE42F60A70AD
:102AD000C0F6000001B0BDE8F04FFFF73DBE00BFFB
:102AE00046756C6C20537465700000002DE9F0474A
:102AF00040F600090D460646C4F20109FFF748FDFD
:102B00000120002101244FF00008FFF7F7FD3FA04E
:102B1000FFF722FE484620210122FEF7B1F8484681
:102B200010210022FEF7ACF8484608210022FEF7EB
:102B3000A7F8F2B248460221FEF7A2F8012D63DBA6
:102B40004FF4C87005FB00F6012ED8BF264640F2B0
:102B5000140A40F26414C2F2000AC2F2000409F539
:102B60008065002705E000BF0137B74208BFBDE818
:102B7000F087484604210122FEF782F8DAF80010B7
:102B8000206801EBD171C1F34F01C0F8248000BF70
:102B9000426A8A4208D2426A8A4205D2426A8A421C
:102BA00002D2426A8A42F3D3484604210022FEF749
:102BB00067F8DAF80010206801EBD171C1F34F011A
:102BC000C0F82480426A8A4208D2426A8A4205D208
:102BD000426A8A4202D2426A8A42F3D328464FF4BA
:102BE0008061FEF747F80028BED1FFF7D1FC012035
:102BF0000021FFF783FD42F60A70C0F60000BDE831
:102C0000F047FFF7A9BD00BFBDE8F08748616C66DB
:102C100020537465700000002DE9F04740F600096C
:102C20000D460646C4F20109FFF7B2FC012000215F
:102C300001244FF00008FFF761FD40A0FFF78CFD75
:102C4000484620210122FEF71BF8484610210022A9
:102C5000FEF716F8484608210122FEF711F8F2B2F5
:102C600048460221FEF70CF8012D65DB4FF4487051
:102C700005FB00F6012ED8BF264640F2140A40F2AA
:102C80006414C2F2000AC2F2000409F5806500274C
:102C900005E000BF0137B74208BFBDE8F0874846EE
:102CA00004210122FDF7ECFFDAF800102068CA17B2
:102CB00001EBD261C1F34F11C0F82480426A8A420D
:102CC00008D2426A8A4205D2426A8A4202D2426AE3
:102CD0008A42F3D3484604210022FDF7D1FFDAF8F7
:102CE00000102068CA1701EBD261C1F34F11C0F880
:102CF000248000BF426A8A4208D2426A8A4205D2D0
:102D0000426A8A4202D2426A8A42F3D328464FF488
:102D10008061FDF7AFFF0028BCD1FFF739FC01202F
:102D20000021FFF7EBFC42F60A70C0F60000BDE898
:102D3000F047FFF711BD00BFBDE8F087312F3332F8
:102D400020537465700000002DE9F04F87B040F209
:102D5000D8080A28C2F2000804D10120C8F80400EB
:102D60000CE000BFD8F808104A1C4144C8F80820FD
:102D70000874D8F80400002800F092802820FDF79D
:102D800035FA04461420FDF731FA05462060142078
:102D9000FDF72CFA064660601420FDF727FA06902E
:102DA000A0601420FDF722FA0590E0601420FDF7E2
:102DB0001DFA049020611420FDF718FA0390606159
:102DC0001420FDF713FA0290A0611420FDF70EFA0B
:102DD0000190E0611420FDF709FA81462062142079
:102DE000FDF704FA42F612718246606208F11000A3
:102DF000C0F60001FDF7E2FA88B142F6127B014607
:102E0000271FC0F6000B00BF57F8040FFDF7DCFAD0
:102E100000205946FDF7D2FA01460028F4D1284691
:102E2000FDF7BEFA0746C8F800003046FDF7B8FACD
:102E30000146C8F80C003846FFF7EEFE0020C8E94E
:102E40000100C8E90400C8E90600C8E90800C8F89C
:102E50002800A8F82C002846FDF7F7F93046FDF7C2
:102E6000F4F90698FDF7F1F90598FDF7EEF90498E5
:102E7000FDF7EBF90398FDF7E8F90298FDF7E5F99E
:102E80000198FDF7E2F94846FDF7DFF95046FDF7F6
:102E9000DCF9204607B0BDE8F04FFDF7D6B900BF1A
:102EA00007B0BDE8F08F000040F20811C2F2000147
:102EB0000860704710B500290AD00878002807D0AC
:102EC00005487844FDF7F8FC002801D0002010BD2B
:102ED0000248784410BD0000820000007A00000023
:102EE00001020000000000000000010203040607C8
:102EF000080900000000010203040203040506079C
:102F000008090A0B0C0D0E0F101053544F500020DF
:102F100020202000526F746174696F6E3A0025643E
:102F200000000000583000080000002018000000D9
:102F300028010008703000081800002098070000E1
:102F4000440100081001000043000000F8FFFFFFEB
:102F500000404040404040404040414141414140AC
:102F60004040404040404040404040404040404061
:102F700040050202020202020202020202020202F0
:102F800002202020202020202020200202020202F5
:102F9000020290909090909010101010101010104D
:102FA0001010101010101010101010100202020259
:102FB000020288888888888808080808080808089D
:102FC0000808080808080808080808080202020299
:102FD00040000000000000000000000000000000B1
:102FE00000000000000000000000000000000000E1
:102FF00000000000000000000000000000000000D1
:1030000000000000000000000000000000000000C0
:1030100000000000000000000000000000000000B0
:1030200000000000000000000000000000000000A0
:103030000000000000000000000000000000000090
:103040000000000000000000000000000000000080
:10305000000000000000000000000000010000006F
:1030600010000000140000000024F400F40100002F
:04000005080000ED02
:00000001FF
